{
  "_format": "hh-sol-artifact-1",
  "contractName": "SuperApp",
  "sourceName": "contracts/SuperPay.sol",
  "abi": [
    {
      "inputs": [
        {
          "internalType": "contract ISuperToken",
          "name": "acceptedToken",
          "type": "address"
        },
        {
          "internalType": "contract ISuperfluid",
          "name": "_host",
          "type": "address"
        },
        {
          "internalType": "contract IConstantFlowAgreementV1",
          "name": "_cfa",
          "type": "address"
        }
      ],
      "stateMutability": "nonpayable",
      "type": "constructor"
    },
    {
      "inputs": [],
      "name": "InvalidAgreement",
      "type": "error"
    },
    {
      "inputs": [],
      "name": "InvalidToken",
      "type": "error"
    },
    {
      "inputs": [],
      "name": "Unauthorized",
      "type": "error"
    },
    {
      "anonymous": false,
      "inputs": [
        {
          "indexed": true,
          "internalType": "address",
          "name": "previousOwner",
          "type": "address"
        },
        {
          "indexed": true,
          "internalType": "address",
          "name": "newOwner",
          "type": "address"
        }
      ],
      "name": "OwnershipTransferred",
      "type": "event"
    },
    {
      "inputs": [
        {
          "internalType": "contract ISuperToken",
          "name": "_superToken",
          "type": "address"
        },
        {
          "internalType": "address",
          "name": "_agreementClass",
          "type": "address"
        },
        {
          "internalType": "bytes32",
          "name": "",
          "type": "bytes32"
        },
        {
          "internalType": "bytes",
          "name": "_agreementData",
          "type": "bytes"
        },
        {
          "internalType": "bytes",
          "name": "",
          "type": "bytes"
        },
        {
          "internalType": "bytes",
          "name": "_ctx",
          "type": "bytes"
        }
      ],
      "name": "afterAgreementCreated",
      "outputs": [
        {
          "internalType": "bytes",
          "name": "newCtx",
          "type": "bytes"
        }
      ],
      "stateMutability": "nonpayable",
      "type": "function"
    },
    {
      "inputs": [
        {
          "internalType": "contract ISuperToken",
          "name": "_superToken",
          "type": "address"
        },
        {
          "internalType": "address",
          "name": "_agreementClass",
          "type": "address"
        },
        {
          "internalType": "bytes32",
          "name": "",
          "type": "bytes32"
        },
        {
          "internalType": "bytes",
          "name": "_agreementData",
          "type": "bytes"
        },
        {
          "internalType": "bytes",
          "name": "",
          "type": "bytes"
        },
        {
          "internalType": "bytes",
          "name": "_ctx",
          "type": "bytes"
        }
      ],
      "name": "afterAgreementTerminated",
      "outputs": [
        {
          "internalType": "bytes",
          "name": "newCtx",
          "type": "bytes"
        }
      ],
      "stateMutability": "nonpayable",
      "type": "function"
    },
    {
      "inputs": [
        {
          "internalType": "contract ISuperToken",
          "name": "_superToken",
          "type": "address"
        },
        {
          "internalType": "address",
          "name": "_agreementClass",
          "type": "address"
        },
        {
          "internalType": "bytes32",
          "name": "",
          "type": "bytes32"
        },
        {
          "internalType": "bytes",
          "name": "_agreementData",
          "type": "bytes"
        },
        {
          "internalType": "bytes",
          "name": "",
          "type": "bytes"
        },
        {
          "internalType": "bytes",
          "name": "_ctx",
          "type": "bytes"
        }
      ],
      "name": "afterAgreementUpdated",
      "outputs": [
        {
          "internalType": "bytes",
          "name": "newCtx",
          "type": "bytes"
        }
      ],
      "stateMutability": "nonpayable",
      "type": "function"
    },
    {
      "inputs": [
        {
          "internalType": "contract ISuperToken",
          "name": "",
          "type": "address"
        },
        {
          "internalType": "address",
          "name": "",
          "type": "address"
        },
        {
          "internalType": "bytes32",
          "name": "",
          "type": "bytes32"
        },
        {
          "internalType": "bytes",
          "name": "",
          "type": "bytes"
        },
        {
          "internalType": "bytes",
          "name": "",
          "type": "bytes"
        }
      ],
      "name": "beforeAgreementCreated",
      "outputs": [
        {
          "internalType": "bytes",
          "name": "",
          "type": "bytes"
        }
      ],
      "stateMutability": "view",
      "type": "function"
    },
    {
      "inputs": [
        {
          "internalType": "contract ISuperToken",
          "name": "",
          "type": "address"
        },
        {
          "internalType": "address",
          "name": "",
          "type": "address"
        },
        {
          "internalType": "bytes32",
          "name": "",
          "type": "bytes32"
        },
        {
          "internalType": "bytes",
          "name": "",
          "type": "bytes"
        },
        {
          "internalType": "bytes",
          "name": "",
          "type": "bytes"
        }
      ],
      "name": "beforeAgreementTerminated",
      "outputs": [
        {
          "internalType": "bytes",
          "name": "",
          "type": "bytes"
        }
      ],
      "stateMutability": "view",
      "type": "function"
    },
    {
      "inputs": [
        {
          "internalType": "contract ISuperToken",
          "name": "",
          "type": "address"
        },
        {
          "internalType": "address",
          "name": "",
          "type": "address"
        },
        {
          "internalType": "bytes32",
          "name": "",
          "type": "bytes32"
        },
        {
          "internalType": "bytes",
          "name": "",
          "type": "bytes"
        },
        {
          "internalType": "bytes",
          "name": "",
          "type": "bytes"
        }
      ],
      "name": "beforeAgreementUpdated",
      "outputs": [
        {
          "internalType": "bytes",
          "name": "",
          "type": "bytes"
        }
      ],
      "stateMutability": "view",
      "type": "function"
    },
    {
      "inputs": [
        {
          "internalType": "address",
          "name": "usr",
          "type": "address"
        },
        {
          "internalType": "address",
          "name": "vendor",
          "type": "address"
        }
      ],
      "name": "getServices",
      "outputs": [
        {
          "internalType": "int96",
          "name": "",
          "type": "int96"
        }
      ],
      "stateMutability": "view",
      "type": "function"
    },
    {
      "inputs": [
        {
          "internalType": "address",
          "name": "add",
          "type": "address"
        }
      ],
      "name": "getVendorList",
      "outputs": [
        {
          "internalType": "address[]",
          "name": "",
          "type": "address[]"
        }
      ],
      "stateMutability": "view",
      "type": "function"
    },
    {
      "inputs": [],
      "name": "owner",
      "outputs": [
        {
          "internalType": "address",
          "name": "",
          "type": "address"
        }
      ],
      "stateMutability": "view",
      "type": "function"
    },
    {
      "inputs": [],
      "name": "renounceOwnership",
      "outputs": [],
      "stateMutability": "nonpayable",
      "type": "function"
    },
    {
      "inputs": [
        {
          "internalType": "address",
          "name": "newOwner",
          "type": "address"
        }
      ],
      "name": "transferOwnership",
      "outputs": [],
      "stateMutability": "nonpayable",
      "type": "function"
    }
  ],
  "bytecode": "0x60e06040523480156200001157600080fd5b5060405162004aa838038062004aa88339818101604052810190620000379190620003d7565b620000576200004b6200020360201b60201c565b6200020b60201b60201c565b600073ffffffffffffffffffffffffffffffffffffffff168273ffffffffffffffffffffffffffffffffffffffff160362000097576200009662000433565b5b600073ffffffffffffffffffffffffffffffffffffffff168373ffffffffffffffffffffffffffffffffffffffff1603620000d757620000d662000433565b5b8273ffffffffffffffffffffffffffffffffffffffff1660808173ffffffffffffffffffffffffffffffffffffffff16815250508173ffffffffffffffffffffffffffffffffffffffff1660a08173ffffffffffffffffffffffffffffffffffffffff16815250508073ffffffffffffffffffffffffffffffffffffffff1660c08173ffffffffffffffffffffffffffffffffffffffff168152505060a05173ffffffffffffffffffffffffffffffffffffffff1663ad3915c864100000000064040000000064010000000060011717176040518263ffffffff1660e01b8152600401620001c691906200047d565b600060405180830381600087803b158015620001e157600080fd5b505af1158015620001f6573d6000803e3d6000fd5b505050505050506200049a565b600033905090565b60008060009054906101000a900473ffffffffffffffffffffffffffffffffffffffff169050816000806101000a81548173ffffffffffffffffffffffffffffffffffffffff021916908373ffffffffffffffffffffffffffffffffffffffff1602179055508173ffffffffffffffffffffffffffffffffffffffff168173ffffffffffffffffffffffffffffffffffffffff167f8be0079c531659141344cd1fd0a4f28419497f9722a3daafe3b4186f6b6457e060405160405180910390a35050565b600080fd5b600073ffffffffffffffffffffffffffffffffffffffff82169050919050565b60006200030182620002d4565b9050919050565b60006200031582620002f4565b9050919050565b620003278162000308565b81146200033357600080fd5b50565b60008151905062000347816200031c565b92915050565b60006200035a82620002f4565b9050919050565b6200036c816200034d565b81146200037857600080fd5b50565b6000815190506200038c8162000361565b92915050565b60006200039f82620002f4565b9050919050565b620003b18162000392565b8114620003bd57600080fd5b50565b600081519050620003d181620003a6565b92915050565b600080600060608486031215620003f357620003f2620002cf565b5b6000620004038682870162000336565b935050602062000416868287016200037b565b92505060406200042986828701620003c0565b9150509250925092565b7f4e487b7100000000000000000000000000000000000000000000000000000000600052600160045260246000fd5b6000819050919050565b620004778162000462565b82525050565b60006020820190506200049460008301846200046c565b92915050565b60805160a05160c05161451362000595600039600081816102fd01528181610e9601526118170152600081816103820152818161046401528181610dbb0152818161189c015261196a0152600081816102780152818161058b015281816105e10152818161069c015281816107d001528181610917015281816109e901528181610a3d01528181610cbc01528181610d1701528181610e40015281816111380152818161124201528181611296015281816114c901528181611550015281816115ab0152818161179201528181611bee01528181611c5f01528181611cdb01528181611d3401528181611da00152611e1701526145136000f3fe608060405234801561001057600080fd5b50600436106100a95760003560e01c8063715018a611610071578063715018a61461019e578063884d1f40146101a85780638da5cb5b146101d8578063d86ed3e5146101f6578063de55d14e14610226578063f2fde38b14610256576100a9565b8063230dbd29146100ae57806330d9c915146100de57806353c11f991461010e5780635f9e7d771461013e578063611fbdfd1461016e575b600080fd5b6100c860048036038101906100c391906130d6565b610272565b6040516100d59190613255565b60405180910390f35b6100f860048036038101906100f39190613277565b610d7a565b6040516101059190613255565b60405180910390f35b610128600480360381019061012391906130d6565b610db7565b6040516101359190613255565b60405180910390f35b61015860048036038101906101539190613277565b611608565b6040516101659190613255565b60405180910390f35b61018860048036038101906101839190613333565b611645565b604051610195919061341e565b60405180910390f35b6101a6611712565b005b6101c260048036038101906101bd9190613277565b611726565b6040516101cf9190613255565b60405180910390f35b6101e0611763565b6040516101ed919061344f565b60405180910390f35b610210600480360381019061020b91906130d6565b61178c565b60405161021d9190613255565b60405180910390f35b610240600480360381019061023b919061346a565b611e76565b60405161024d91906134c6565b60405180910390f35b610270600480360381019061026b9190613333565b611f0a565b005b606089897f000000000000000000000000000000000000000000000000000000000000000073ffffffffffffffffffffffffffffffffffffffff168273ffffffffffffffffffffffffffffffffffffffff16146102fb576040517fc1ab6dc100000000000000000000000000000000000000000000000000000000815260040160405180910390fd5b7f000000000000000000000000000000000000000000000000000000000000000073ffffffffffffffffffffffffffffffffffffffff168173ffffffffffffffffffffffffffffffffffffffff1614610380576040517ffe1da89a00000000000000000000000000000000000000000000000000000000815260040160405180910390fd5b7f000000000000000000000000000000000000000000000000000000000000000073ffffffffffffffffffffffffffffffffffffffff163373ffffffffffffffffffffffffffffffffffffffff1614610405576040517f82b4290000000000000000000000000000000000000000000000000000000000815260040160405180910390fd5b60008989810190610416919061351f565b50905085858080601f016020809104026020016040519081016040528093929190818152602001838380828437600081840152601f19601f82011690508083019250505050505050935060007f000000000000000000000000000000000000000000000000000000000000000073ffffffffffffffffffffffffffffffffffffffff16633f6c923a866040518263ffffffff1660e01b81526004016104bb9190613255565b600060405180830381865afa1580156104d8573d6000803e3d6000fd5b505050506040513d6000823e3d601f19601f820116820180604052508101906105019190613902565b90506040516020016105129061397c565b604051602081830303815290604052805190602001208160a0015160405160200161053d91906139cd565b604051602081830303815290604052805190602001200361055f575050610d6b565b60008060008360a0015180602001905181019061057c9190613ac6565b92509250925060006105cf30857f000000000000000000000000000000000000000000000000000000000000000073ffffffffffffffffffffffffffffffffffffffff16611f8d9092919063ffffffff16565b90506000610625306105df611763565b7f000000000000000000000000000000000000000000000000000000000000000073ffffffffffffffffffffffffffffffffffffffff16611f8d9092919063ffffffff16565b90506040518060400160405280600a81526020017f61646453657276696365000000000000000000000000000000000000000000008152508051906020012083805190602001200361096457600082600b0b036107a0576106e185606460638761068f9190613b64565b6106999190613bd0565b8c7f000000000000000000000000000000000000000000000000000000000000000073ffffffffffffffffffffffffffffffffffffffff1661202d909392919063ffffffff16565b99506106ed8786612194565b83600160008973ffffffffffffffffffffffffffffffffffffffff1673ffffffffffffffffffffffffffffffffffffffff16815260200190815260200160002060008773ffffffffffffffffffffffffffffffffffffffff1673ffffffffffffffffffffffffffffffffffffffff16815260200190815260200160002060006101000a8154816bffffffffffffffffffffffff0219169083600b0b6bffffffffffffffffffffffff1602179055506108ec565b600060646063866107b19190613b64565b6107bb9190613bd0565b836107c69190613c3a565b905061081586828d7f000000000000000000000000000000000000000000000000000000000000000073ffffffffffffffffffffffffffffffffffffffff16612358909392919063ffffffff16565b9a506108218887612194565b84600160008a73ffffffffffffffffffffffffffffffffffffffff1673ffffffffffffffffffffffffffffffffffffffff16815260200190815260200160002060008873ffffffffffffffffffffffffffffffffffffffff1673ffffffffffffffffffffffffffffffffffffffff16815260200190815260200160002060008282829054906101000a9004600b0b6108b99190613c3a565b92506101000a8154816bffffffffffffffffffffffff0219169083600b0b6bffffffffffffffffffffffff160217905550505b60006064856108fb9190613bd0565b826109069190613c3a565b905061095c610913611763565b828d7f000000000000000000000000000000000000000000000000000000000000000073ffffffffffffffffffffffffffffffffffffffff16612358909392919063ffffffff16565b9a5050610d63565b6040518060400160405280600d81526020017f72656d6f7665536572766963650000000000000000000000000000000000000081525080519060200120838051906020012003610d6257600060646063866109bf9190613b64565b6109c99190613bd0565b836109d49190613c9e565b9050600081600b0b03610a3557610a2e30878d7f000000000000000000000000000000000000000000000000000000000000000073ffffffffffffffffffffffffffffffffffffffff166124bf909392919063ffffffff16565b9a50610a85565b610a8286828d7f000000000000000000000000000000000000000000000000000000000000000073ffffffffffffffffffffffffffffffffffffffff16612358909392919063ffffffff16565b9a505b600160008973ffffffffffffffffffffffffffffffffffffffff1673ffffffffffffffffffffffffffffffffffffffff16815260200190815260200160002060008773ffffffffffffffffffffffffffffffffffffffff1673ffffffffffffffffffffffffffffffffffffffff16815260200190815260200160002060009054906101000a9004600b0b600b0b85600b0b03610bbd57610b258887612626565b600160008973ffffffffffffffffffffffffffffffffffffffff1673ffffffffffffffffffffffffffffffffffffffff16815260200190815260200160002060008773ffffffffffffffffffffffffffffffffffffffff1673ffffffffffffffffffffffffffffffffffffffff16815260200190815260200160002060006101000a8154906bffffffffffffffffffffffff02191690555b84600160008a73ffffffffffffffffffffffffffffffffffffffff1673ffffffffffffffffffffffffffffffffffffffff16815260200190815260200160002060008873ffffffffffffffffffffffffffffffffffffffff1673ffffffffffffffffffffffffffffffffffffffff16815260200190815260200160002060008282829054906101000a9004600b0b610c559190613c9e565b92506101000a8154816bffffffffffffffffffffffff0219169083600b0b6bffffffffffffffffffffffff1602179055506000606486610c959190613bd0565b83610ca09190613c9e565b9050600081600b0b03610d0857610d0130610cb9611763565b8e7f000000000000000000000000000000000000000000000000000000000000000073ffffffffffffffffffffffffffffffffffffffff166124bf909392919063ffffffff16565b9b50610d5f565b610d5c610d13611763565b828e7f000000000000000000000000000000000000000000000000000000000000000073ffffffffffffffffffffffffffffffffffffffff16612358909392919063ffffffff16565b9b505b50505b5b505050505050505b50509998505050505050505050565b60606040517f08c379a0000000000000000000000000000000000000000000000000000000008152600401610dae90613d85565b60405180910390fd5b60607f000000000000000000000000000000000000000000000000000000000000000073ffffffffffffffffffffffffffffffffffffffff163373ffffffffffffffffffffffffffffffffffffffff1614610e3e576040517f82b4290000000000000000000000000000000000000000000000000000000000815260040160405180910390fd5b7f000000000000000000000000000000000000000000000000000000000000000073ffffffffffffffffffffffffffffffffffffffff168a73ffffffffffffffffffffffffffffffffffffffff16141580610ee557507f000000000000000000000000000000000000000000000000000000000000000073ffffffffffffffffffffffffffffffffffffffff168973ffffffffffffffffffffffffffffffffffffffff1614155b15610f365782828080601f016020809104026020016040519081016040528093929190818152602001838380828437600081840152601f19601f8201169050808301925050505050505090506115fb565b82828080601f016020809104026020016040519081016040528093929190818152602001838380828437600081840152601f19601f8201169050808301925050505050505090506000808888810190610f8f919061351f565b915091503073ffffffffffffffffffffffffffffffffffffffff168173ffffffffffffffffffffffffffffffffffffffff16036115f857600080600090505b600260008573ffffffffffffffffffffffffffffffffffffffff1673ffffffffffffffffffffffffffffffffffffffff168152602001908152602001600020805490508110156112f4576000600260008673ffffffffffffffffffffffffffffffffffffffff1673ffffffffffffffffffffffffffffffffffffffff168152602001908152602001600020828154811061106b5761106a613da5565b5b9060005260206000200160009054906101000a900473ffffffffffffffffffffffffffffffffffffffff169050600160008673ffffffffffffffffffffffffffffffffffffffff1673ffffffffffffffffffffffffffffffffffffffff16815260200190815260200160002060008273ffffffffffffffffffffffffffffffffffffffff1673ffffffffffffffffffffffffffffffffffffffff16815260200190815260200160002060009054906101000a9004600b0b8361112d9190613c3a565b9250600061117c30837f000000000000000000000000000000000000000000000000000000000000000073ffffffffffffffffffffffffffffffffffffffff16611f8d9092919063ffffffff16565b9050600060646063600160008a73ffffffffffffffffffffffffffffffffffffffff1673ffffffffffffffffffffffffffffffffffffffff16815260200190815260200160002060008673ffffffffffffffffffffffffffffffffffffffff1673ffffffffffffffffffffffffffffffffffffffff16815260200190815260200160002060009054906101000a9004600b0b6112189190613b64565b6112229190613bd0565b8261122d9190613c9e565b9050600081600b0b0361128e5761128730848a7f000000000000000000000000000000000000000000000000000000000000000073ffffffffffffffffffffffffffffffffffffffff166124bf909392919063ffffffff16565b97506112de565b6112db83828a7f000000000000000000000000000000000000000000000000000000000000000073ffffffffffffffffffffffffffffffffffffffff16612358909392919063ffffffff16565b97505b50505080806112ec90613dd4565b915050610fce565b5060005b600260008573ffffffffffffffffffffffffffffffffffffffff1673ffffffffffffffffffffffffffffffffffffffff1681526020019081526020016000208054905081101561146d576000600260008673ffffffffffffffffffffffffffffffffffffffff1673ffffffffffffffffffffffffffffffffffffffff168152602001908152602001600020828154811061139557611394613da5565b5b9060005260206000200160009054906101000a900473ffffffffffffffffffffffffffffffffffffffff169050600160008673ffffffffffffffffffffffffffffffffffffffff1673ffffffffffffffffffffffffffffffffffffffff16815260200190815260200160002060008273ffffffffffffffffffffffffffffffffffffffff1673ffffffffffffffffffffffffffffffffffffffff16815260200190815260200160002060006101000a8154906bffffffffffffffffffffffff021916905550808061146590613dd4565b9150506112f8565b50600260008473ffffffffffffffffffffffffffffffffffffffff1673ffffffffffffffffffffffffffffffffffffffff16815260200190815260200160002060006114b99190612f4d565b600061150d306114c7611763565b7f000000000000000000000000000000000000000000000000000000000000000073ffffffffffffffffffffffffffffffffffffffff16611f8d9092919063ffffffff16565b9050600081600b0b146115f55760006064836115299190613bd0565b826115349190613c9e565b9050600081600b0b0361159c576115953061154d611763565b887f000000000000000000000000000000000000000000000000000000000000000073ffffffffffffffffffffffffffffffffffffffff166124bf909392919063ffffffff16565b95506115f3565b6115f06115a7611763565b82887f000000000000000000000000000000000000000000000000000000000000000073ffffffffffffffffffffffffffffffffffffffff16612358909392919063ffffffff16565b95505b505b50505b50505b9998505050505050505050565b60606040517f08c379a000000000000000000000000000000000000000000000000000000000815260040161163c90613e8e565b60405180910390fd5b6060600260008373ffffffffffffffffffffffffffffffffffffffff1673ffffffffffffffffffffffffffffffffffffffff16815260200190815260200160002080548060200260200160405190810160405280929190818152602001828054801561170657602002820191906000526020600020905b8160009054906101000a900473ffffffffffffffffffffffffffffffffffffffff1673ffffffffffffffffffffffffffffffffffffffff16815260200190600101908083116116bc575b50505050509050919050565b61171a61293b565b61172460006129b9565b565b60606040517f08c379a000000000000000000000000000000000000000000000000000000000815260040161175a90613f20565b60405180910390fd5b60008060009054906101000a900473ffffffffffffffffffffffffffffffffffffffff16905090565b606089897f000000000000000000000000000000000000000000000000000000000000000073ffffffffffffffffffffffffffffffffffffffff168273ffffffffffffffffffffffffffffffffffffffff1614611815576040517fc1ab6dc100000000000000000000000000000000000000000000000000000000815260040160405180910390fd5b7f000000000000000000000000000000000000000000000000000000000000000073ffffffffffffffffffffffffffffffffffffffff168173ffffffffffffffffffffffffffffffffffffffff161461189a576040517ffe1da89a00000000000000000000000000000000000000000000000000000000815260040160405180910390fd5b7f000000000000000000000000000000000000000000000000000000000000000073ffffffffffffffffffffffffffffffffffffffff163373ffffffffffffffffffffffffffffffffffffffff161461191f576040517f82b4290000000000000000000000000000000000000000000000000000000000815260040160405180910390fd5b84848080601f016020809104026020016040519081016040528093929190818152602001838380828437600081840152601f19601f82011690508083019250505050505050925060007f000000000000000000000000000000000000000000000000000000000000000073ffffffffffffffffffffffffffffffffffffffff16633f6c923a856040518263ffffffff1660e01b81526004016119c19190613255565b600060405180830381865afa1580156119de573d6000803e3d6000fd5b505050506040513d6000823e3d601f19601f82011682018060405250810190611a079190613902565b9050604051602001611a189061397c565b604051602081830303815290604052805190602001208160a00151604051602001611a4391906139cd565b6040516020818303038152906040528051906020012003611a645750611e67565b6000808260a00151806020019051810190611a7f9190613f40565b9150915060008c8c810190611a94919061351f565b509050600260008273ffffffffffffffffffffffffffffffffffffffff1673ffffffffffffffffffffffffffffffffffffffff168152602001908152602001600020839080600181540180825580915050600190039060005260206000200160009091909190916101000a81548173ffffffffffffffffffffffffffffffffffffffff021916908373ffffffffffffffffffffffffffffffffffffffff16021790555081600160008373ffffffffffffffffffffffffffffffffffffffff1673ffffffffffffffffffffffffffffffffffffffff16815260200190815260200160002060008573ffffffffffffffffffffffffffffffffffffffff1673ffffffffffffffffffffffffffffffffffffffff16815260200190815260200160002060006101000a8154816bffffffffffffffffffffffff0219169083600b0b6bffffffffffffffffffffffff1602179055506000611c3230857f000000000000000000000000000000000000000000000000000000000000000073ffffffffffffffffffffffffffffffffffffffff16611f8d9092919063ffffffff16565b9050600081600b0b03611cab57611ca4846064606386611c529190613b64565b611c5c9190613bd0565b8a7f000000000000000000000000000000000000000000000000000000000000000073ffffffffffffffffffffffffffffffffffffffff1661202d909392919063ffffffff16565b9750611d24565b60006064606385611cbc9190613b64565b611cc69190613bd0565b82611cd19190613c3a565b9050611d2085828b7f000000000000000000000000000000000000000000000000000000000000000073ffffffffffffffffffffffffffffffffffffffff16612358909392919063ffffffff16565b9850505b6000611d7830611d32611763565b7f000000000000000000000000000000000000000000000000000000000000000073ffffffffffffffffffffffffffffffffffffffff16611f8d9092919063ffffffff16565b9050600081600b0b03611dec57611de5611d90611763565b606486611d9d9190613bd0565b8b7f000000000000000000000000000000000000000000000000000000000000000073ffffffffffffffffffffffffffffffffffffffff1661202d909392919063ffffffff16565b9850611e60565b6000606485611dfb9190613bd0565b82611e069190613c3a565b9050611e5c611e13611763565b828c7f000000000000000000000000000000000000000000000000000000000000000073ffffffffffffffffffffffffffffffffffffffff16612358909392919063ffffffff16565b9950505b5050505050505b50509998505050505050505050565b6000600160008473ffffffffffffffffffffffffffffffffffffffff1673ffffffffffffffffffffffffffffffffffffffff16815260200190815260200160002060008373ffffffffffffffffffffffffffffffffffffffff1673ffffffffffffffffffffffffffffffffffffffff16815260200190815260200160002060009054906101000a9004600b0b905092915050565b611f1261293b565b600073ffffffffffffffffffffffffffffffffffffffff168173ffffffffffffffffffffffffffffffffffffffff1603611f81576040517f08c379a0000000000000000000000000000000000000000000000000000000008152600401611f7890613ff2565b60405180910390fd5b611f8a816129b9565b50565b600080611f9985612a7d565b9150508073ffffffffffffffffffffffffffffffffffffffff1663e6a1e8888686866040518463ffffffff1660e01b8152600401611fd993929190614071565b608060405180830381865afa158015611ff6573d6000803e3d6000fd5b505050506040513d601f19601f8201168201806040525081019061201a91906140a8565b9091925090505080925050509392505050565b606060008061203b87612cbe565b915091508173ffffffffffffffffffffffffffffffffffffffff16634329d293828373ffffffffffffffffffffffffffffffffffffffff166362fc305e8b8b8b600067ffffffffffffffff81111561209657612095613564565b5b6040519080825280601f01601f1916602001820160405280156120c85781602001600182028036833780820191505090505b506040516024016120dc949392919061410f565b604051602081830303815290604052915060e01b6020820180517bffffffffffffffffffffffffffffffffffffffffffffffffffffffff8381831617835250505050876040518463ffffffff1660e01b815260040161213d939291906141c8565b6000604051808303816000875af115801561215c573d6000803e3d6000fd5b505050506040513d6000823e3d601f19601f820116820180604052508101906121859190614220565b50809350505050949350505050565b6000805b600260008573ffffffffffffffffffffffffffffffffffffffff1673ffffffffffffffffffffffffffffffffffffffff168152602001908152602001600020805490508110156122ac57600260008573ffffffffffffffffffffffffffffffffffffffff1673ffffffffffffffffffffffffffffffffffffffff168152602001908152602001600020818154811061223357612232613da5565b5b9060005260206000200160009054906101000a900473ffffffffffffffffffffffffffffffffffffffff1673ffffffffffffffffffffffffffffffffffffffff168373ffffffffffffffffffffffffffffffffffffffff160361229957600191506122ac565b80806122a490613dd4565b915050612198565b508061235357600260008473ffffffffffffffffffffffffffffffffffffffff1673ffffffffffffffffffffffffffffffffffffffff168152602001908152602001600020829080600181540180825580915050600190039060005260206000200160009091909190916101000a81548173ffffffffffffffffffffffffffffffffffffffff021916908373ffffffffffffffffffffffffffffffffffffffff1602179055505b505050565b606060008061236687612cbe565b915091508173ffffffffffffffffffffffffffffffffffffffff16634329d293828373ffffffffffffffffffffffffffffffffffffffff166350209a628b8b8b600067ffffffffffffffff8111156123c1576123c0613564565b5b6040519080825280601f01601f1916602001820160405280156123f35781602001600182028036833780820191505090505b50604051602401612407949392919061410f565b604051602081830303815290604052915060e01b6020820180517bffffffffffffffffffffffffffffffffffffffffffffffffffffffff8381831617835250505050876040518463ffffffff1660e01b8152600401612468939291906141c8565b6000604051808303816000875af1158015612487573d6000803e3d6000fd5b505050506040513d6000823e3d601f19601f820116820180604052508101906124b09190614220565b50809350505050949350505050565b60606000806124cd87612cbe565b915091508173ffffffffffffffffffffffffffffffffffffffff16634329d293828373ffffffffffffffffffffffffffffffffffffffff1663b4b333c68b8b8b600067ffffffffffffffff81111561252857612527613564565b5b6040519080825280601f01601f19166020018201604052801561255a5781602001600182028036833780820191505090505b5060405160240161256e9493929190614298565b604051602081830303815290604052915060e01b6020820180517bffffffffffffffffffffffffffffffffffffffffffffffffffffffff8381831617835250505050876040518463ffffffff1660e01b81526004016125cf939291906141c8565b6000604051808303816000875af11580156125ee573d6000803e3d6000fd5b505050506040513d6000823e3d601f19601f820116820180604052508101906126179190614220565b50809350505050949350505050565b60008080600090505b600260008673ffffffffffffffffffffffffffffffffffffffff1673ffffffffffffffffffffffffffffffffffffffff1681526020019081526020016000208054905081101561274657600260008673ffffffffffffffffffffffffffffffffffffffff1673ffffffffffffffffffffffffffffffffffffffff16815260200190815260200160002081815481106126ca576126c9613da5565b5b9060005260206000200160009054906101000a900473ffffffffffffffffffffffffffffffffffffffff1673ffffffffffffffffffffffffffffffffffffffff168473ffffffffffffffffffffffffffffffffffffffff16036127335760019250809150612746565b808061273e90613dd4565b91505061262f565b50811561293557600260008573ffffffffffffffffffffffffffffffffffffffff1673ffffffffffffffffffffffffffffffffffffffff1681526020019081526020016000206001600260008773ffffffffffffffffffffffffffffffffffffffff1673ffffffffffffffffffffffffffffffffffffffff168152602001908152602001600020805490506127db91906142e4565b815481106127ec576127eb613da5565b5b9060005260206000200160009054906101000a900473ffffffffffffffffffffffffffffffffffffffff16600260008673ffffffffffffffffffffffffffffffffffffffff1673ffffffffffffffffffffffffffffffffffffffff168152602001908152602001600020828154811061286857612867613da5565b5b9060005260206000200160006101000a81548173ffffffffffffffffffffffffffffffffffffffff021916908373ffffffffffffffffffffffffffffffffffffffff160217905550600260008573ffffffffffffffffffffffffffffffffffffffff1673ffffffffffffffffffffffffffffffffffffffff1681526020019081526020016000208054806128ff576128fe614318565b5b6001900381819060005260206000200160006101000a81549073ffffffffffffffffffffffffffffffffffffffff021916905590555b50505050565b612943612f45565b73ffffffffffffffffffffffffffffffffffffffff16612961611763565b73ffffffffffffffffffffffffffffffffffffffff16146129b7576040517f08c379a00000000000000000000000000000000000000000000000000000000081526004016129ae90614393565b60405180910390fd5b565b60008060009054906101000a900473ffffffffffffffffffffffffffffffffffffffff169050816000806101000a81548173ffffffffffffffffffffffffffffffffffffffff021916908373ffffffffffffffffffffffffffffffffffffffff1602179055508173ffffffffffffffffffffffffffffffffffffffff168173ffffffffffffffffffffffffffffffffffffffff167f8be0079c531659141344cd1fd0a4f28419497f9722a3daafe3b4186f6b6457e060405160405180910390a35050565b6000807f65599bf746e17a00ea62e3610586992d88101b78eec3cf380706621fb97ea8375491507fb969d79d88acd02d04ed7ee7d43b949e7daf093d363abcfbbc43dfdfd1ce969a549050600073ffffffffffffffffffffffffffffffffffffffff168173ffffffffffffffffffffffffffffffffffffffff1603612c3f57600073ffffffffffffffffffffffffffffffffffffffff168273ffffffffffffffffffffffffffffffffffffffff1603612ba2578273ffffffffffffffffffffffffffffffffffffffff166320bc44256040518163ffffffff1660e01b8152600401602060405180830381865afa158015612b7b573d6000803e3d6000fd5b505050506040513d601f19601f82011682018060405250810190612b9f91906143b3565b91505b8173ffffffffffffffffffffffffffffffffffffffff1663b6d200de7fa9214cc96615e0085d3bb077758db69497dc2dce3b2b1e97bc93c3d18d83efd36040518263ffffffff1660e01b8152600401612bfb9190614428565b602060405180830381865afa158015612c18573d6000803e3d6000fd5b505050506040513d601f19601f82011682018060405250810190612c3c9190614481565b90505b600073ffffffffffffffffffffffffffffffffffffffff168273ffffffffffffffffffffffffffffffffffffffff1603612c7c57612c7b6144ae565b5b600073ffffffffffffffffffffffffffffffffffffffff168173ffffffffffffffffffffffffffffffffffffffff1603612cb957612cb86144ae565b5b915091565b6000807f65599bf746e17a00ea62e3610586992d88101b78eec3cf380706621fb97ea8375491507fb969d79d88acd02d04ed7ee7d43b949e7daf093d363abcfbbc43dfdfd1ce969a549050600073ffffffffffffffffffffffffffffffffffffffff168173ffffffffffffffffffffffffffffffffffffffff1603612ec657600073ffffffffffffffffffffffffffffffffffffffff168273ffffffffffffffffffffffffffffffffffffffff1603612de3578273ffffffffffffffffffffffffffffffffffffffff166320bc44256040518163ffffffff1660e01b8152600401602060405180830381865afa158015612dbc573d6000803e3d6000fd5b505050506040513d601f19601f82011682018060405250810190612de091906143b3565b91505b8173ffffffffffffffffffffffffffffffffffffffff1663b6d200de7fa9214cc96615e0085d3bb077758db69497dc2dce3b2b1e97bc93c3d18d83efd36040518263ffffffff1660e01b8152600401612e3c9190614428565b602060405180830381865afa158015612e59573d6000803e3d6000fd5b505050506040513d601f19601f82011682018060405250810190612e7d9190614481565b9050817f65599bf746e17a00ea62e3610586992d88101b78eec3cf380706621fb97ea83755807fb969d79d88acd02d04ed7ee7d43b949e7daf093d363abcfbbc43dfdfd1ce969a555b600073ffffffffffffffffffffffffffffffffffffffff168273ffffffffffffffffffffffffffffffffffffffff1603612f0357612f026144ae565b5b600073ffffffffffffffffffffffffffffffffffffffff168173ffffffffffffffffffffffffffffffffffffffff1603612f4057612f3f6144ae565b5b915091565b600033905090565b5080546000825590600052602060002090810190612f6b9190612f6e565b50565b5b80821115612f87576000816000905550600101612f6f565b5090565b6000604051905090565b600080fd5b600080fd5b600073ffffffffffffffffffffffffffffffffffffffff82169050919050565b6000612fca82612f9f565b9050919050565b6000612fdc82612fbf565b9050919050565b612fec81612fd1565b8114612ff757600080fd5b50565b60008135905061300981612fe3565b92915050565b61301881612fbf565b811461302357600080fd5b50565b6000813590506130358161300f565b92915050565b6000819050919050565b61304e8161303b565b811461305957600080fd5b50565b60008135905061306b81613045565b92915050565b600080fd5b600080fd5b600080fd5b60008083601f84011261309657613095613071565b5b8235905067ffffffffffffffff8111156130b3576130b2613076565b5b6020830191508360018202830111156130cf576130ce61307b565b5b9250929050565b600080600080600080600080600060c08a8c0312156130f8576130f7612f95565b5b60006131068c828d01612ffa565b99505060206131178c828d01613026565b98505060406131288c828d0161305c565b97505060608a013567ffffffffffffffff81111561314957613148612f9a565b5b6131558c828d01613080565b965096505060808a013567ffffffffffffffff81111561317857613177612f9a565b5b6131848c828d01613080565b945094505060a08a013567ffffffffffffffff8111156131a7576131a6612f9a565b5b6131b38c828d01613080565b92509250509295985092959850929598565b600081519050919050565b600082825260208201905092915050565b60005b838110156131ff5780820151818401526020810190506131e4565b60008484015250505050565b6000601f19601f8301169050919050565b6000613227826131c5565b61323181856131d0565b93506132418185602086016131e1565b61324a8161320b565b840191505092915050565b6000602082019050818103600083015261326f818461321c565b905092915050565b600080600080600080600060a0888a03121561329657613295612f95565b5b60006132a48a828b01612ffa565b97505060206132b58a828b01613026565b96505060406132c68a828b0161305c565b955050606088013567ffffffffffffffff8111156132e7576132e6612f9a565b5b6132f38a828b01613080565b9450945050608088013567ffffffffffffffff81111561331657613315612f9a565b5b6133228a828b01613080565b925092505092959891949750929550565b60006020828403121561334957613348612f95565b5b600061335784828501613026565b91505092915050565b600081519050919050565b600082825260208201905092915050565b6000819050602082019050919050565b61339581612fbf565b82525050565b60006133a7838361338c565b60208301905092915050565b6000602082019050919050565b60006133cb82613360565b6133d5818561336b565b93506133e08361337c565b8060005b838110156134115781516133f8888261339b565b9750613403836133b3565b9250506001810190506133e4565b5085935050505092915050565b6000602082019050818103600083015261343881846133c0565b905092915050565b61344981612fbf565b82525050565b60006020820190506134646000830184613440565b92915050565b6000806040838503121561348157613480612f95565b5b600061348f85828601613026565b92505060206134a085828601613026565b9150509250929050565b600081600b0b9050919050565b6134c0816134aa565b82525050565b60006020820190506134db60008301846134b7565b92915050565b60006134ec82612f9f565b9050919050565b6134fc816134e1565b811461350757600080fd5b50565b600081359050613519816134f3565b92915050565b6000806040838503121561353657613535612f95565b5b60006135448582860161350a565b92505060206135558582860161350a565b9150509250929050565b600080fd5b7f4e487b7100000000000000000000000000000000000000000000000000000000600052604160045260246000fd5b61359c8261320b565b810181811067ffffffffffffffff821117156135bb576135ba613564565b5b80604052505050565b60006135ce612f8b565b90506135da8282613593565b919050565b600080fd5b600060ff82169050919050565b6135fa816135e4565b811461360557600080fd5b50565b600081519050613617816135f1565b92915050565b6000819050919050565b6136308161361d565b811461363b57600080fd5b50565b60008151905061364d81613627565b92915050565b6000815190506136628161300f565b92915050565b60007fffffffff0000000000000000000000000000000000000000000000000000000082169050919050565b61369d81613668565b81146136a857600080fd5b50565b6000815190506136ba81613694565b92915050565b600080fd5b600067ffffffffffffffff8211156136e0576136df613564565b5b6136e98261320b565b9050602081019050919050565b6000613709613704846136c5565b6135c4565b905082815260208101848484011115613725576137246136c0565b5b6137308482856131e1565b509392505050565b600082601f83011261374d5761374c613071565b5b815161375d8482602086016136f6565b91505092915050565b6000819050919050565b61377981613766565b811461378457600080fd5b50565b60008151905061379681613770565b92915050565b60006137a782612fbf565b9050919050565b6137b78161379c565b81146137c257600080fd5b50565b6000815190506137d4816137ae565b92915050565b600061016082840312156137f1576137f061355f565b5b6137fc6101606135c4565b9050600061380c84828501613608565b600083015250602061382084828501613608565b60208301525060406138348482850161363e565b604083015250606061384884828501613653565b606083015250608061385c848285016136ab565b60808301525060a082015167ffffffffffffffff8111156138805761387f6135df565b5b61388c84828501613738565b60a08301525060c06138a08482850161363e565b60c08301525060e06138b48482850161363e565b60e0830152506101006138c984828501613787565b610100830152506101206138df84828501613653565b610120830152506101406138f5848285016137c5565b6101408301525092915050565b60006020828403121561391857613917612f95565b5b600082015167ffffffffffffffff81111561393657613935612f9a565b5b613942848285016137da565b91505092915050565b600081905092915050565b50565b600061396660008361394b565b915061397182613956565b600082019050919050565b600061398782613959565b9150819050919050565b600081519050919050565b60006139a782613991565b6139b1818561394b565b93506139c18185602086016131e1565b80840191505092915050565b60006139d9828461399c565b915081905092915050565b6000815190506139f3816134f3565b92915050565b613a02816134aa565b8114613a0d57600080fd5b50565b600081519050613a1f816139f9565b92915050565b600067ffffffffffffffff821115613a4057613a3f613564565b5b613a498261320b565b9050602081019050919050565b6000613a69613a6484613a25565b6135c4565b905082815260208101848484011115613a8557613a846136c0565b5b613a908482856131e1565b509392505050565b600082601f830112613aad57613aac613071565b5b8151613abd848260208601613a56565b91505092915050565b600080600060608486031215613adf57613ade612f95565b5b6000613aed868287016139e4565b9350506020613afe86828701613a10565b925050604084015167ffffffffffffffff811115613b1f57613b1e612f9a565b5b613b2b86828701613a98565b9150509250925092565b7f4e487b7100000000000000000000000000000000000000000000000000000000600052601160045260246000fd5b6000613b6f826134aa565b9150613b7a836134aa565b9250828202613b88816134aa565b9150808214613b9a57613b99613b35565b5b5092915050565b7f4e487b7100000000000000000000000000000000000000000000000000000000600052601260045260246000fd5b6000613bdb826134aa565b9150613be6836134aa565b925082613bf657613bf5613ba1565b5b600160000383147fffffffffffffffffffffffffffffffffffffffff80000000000000000000000083141615613c2f57613c2e613b35565b5b828205905092915050565b6000613c45826134aa565b9150613c50836134aa565b925082820190507fffffffffffffffffffffffffffffffffffffffff80000000000000000000000081126b7fffffffffffffffffffffff82131715613c9857613c97613b35565b5b92915050565b6000613ca9826134aa565b9150613cb4836134aa565b925082820390506b7fffffffffffffffffffffff81137fffffffffffffffffffffffffffffffffffffffff80000000000000000000000082121715613cfc57613cfb613b35565b5b92915050565b600082825260208201905092915050565b7f556e737570706f727465642063616c6c6261636b202d204265666f726520416760008201527f7265656d656e7420437265617465640000000000000000000000000000000000602082015250565b6000613d6f602f83613d02565b9150613d7a82613d13565b604082019050919050565b60006020820190508181036000830152613d9e81613d62565b9050919050565b7f4e487b7100000000000000000000000000000000000000000000000000000000600052603260045260246000fd5b6000613ddf8261361d565b91507fffffffffffffffffffffffffffffffffffffffffffffffffffffffffffffffff8203613e1157613e10613b35565b5b600182019050919050565b7f556e737570706f727465642063616c6c6261636b202d20204265666f7265204160008201527f677265656d656e74205465726d696e6174656400000000000000000000000000602082015250565b6000613e78603383613d02565b9150613e8382613e1c565b604082019050919050565b60006020820190508181036000830152613ea781613e6b565b9050919050565b7f556e737570706f727465642063616c6c6261636b202d204265666f726520416760008201527f7265656d656e7420757064617465640000000000000000000000000000000000602082015250565b6000613f0a602f83613d02565b9150613f1582613eae565b604082019050919050565b60006020820190508181036000830152613f3981613efd565b9050919050565b60008060408385031215613f5757613f56612f95565b5b6000613f65858286016139e4565b9250506020613f7685828601613a10565b9150509250929050565b7f4f776e61626c653a206e6577206f776e657220697320746865207a65726f206160008201527f6464726573730000000000000000000000000000000000000000000000000000602082015250565b6000613fdc602683613d02565b9150613fe782613f80565b604082019050919050565b6000602082019050818103600083015261400b81613fcf565b9050919050565b6000819050919050565b600061403761403261402d84612f9f565b614012565b612f9f565b9050919050565b60006140498261401c565b9050919050565b600061405b8261403e565b9050919050565b61406b81614050565b82525050565b60006060820190506140866000830186614062565b6140936020830185613440565b6140a06040830184613440565b949350505050565b600080600080608085870312156140c2576140c1612f95565b5b60006140d08782880161363e565b94505060206140e187828801613a10565b93505060406140f28782880161363e565b92505060606141038782880161363e565b91505092959194509250565b60006080820190506141246000830187614062565b6141316020830186613440565b61413e60408301856134b7565b8181036060830152614150818461321c565b905095945050505050565b60006141668261403e565b9050919050565b6141768161415b565b82525050565b7f3078000000000000000000000000000000000000000000000000000000000000600082015250565b60006141b26002836131d0565b91506141bd8261417c565b602082019050919050565b60006080820190506141dd600083018661416d565b81810360208301526141ef818561321c565b90508181036040830152614202816141a5565b90508181036060830152614216818461321c565b9050949350505050565b6000806040838503121561423757614236612f95565b5b600083015167ffffffffffffffff81111561425557614254612f9a565b5b61426185828601613738565b925050602083015167ffffffffffffffff81111561428257614281612f9a565b5b61428e85828601613738565b9150509250929050565b60006080820190506142ad6000830187614062565b6142ba6020830186613440565b6142c76040830185613440565b81810360608301526142d9818461321c565b905095945050505050565b60006142ef8261361d565b91506142fa8361361d565b925082820390508181111561431257614311613b35565b5b92915050565b7f4e487b7100000000000000000000000000000000000000000000000000000000600052603160045260246000fd5b7f4f776e61626c653a2063616c6c6572206973206e6f7420746865206f776e6572600082015250565b600061437d602083613d02565b915061438882614347565b602082019050919050565b600060208201905081810360008301526143ac81614370565b9050919050565b6000602082840312156143c9576143c8612f95565b5b60006143d784828501613653565b91505092915050565b6000819050919050565b60008160001b9050919050565b600061441261440d614408846143e0565b6143ea565b61303b565b9050919050565b614422816143f7565b82525050565b600060208201905061443d6000830184614419565b92915050565b600061444e82612fbf565b9050919050565b61445e81614443565b811461446957600080fd5b50565b60008151905061447b81614455565b92915050565b60006020828403121561449757614496612f95565b5b60006144a58482850161446c565b91505092915050565b7f4e487b7100000000000000000000000000000000000000000000000000000000600052600160045260246000fdfea264697066735822122039a2e4de5cece983fe9c02cabd006ee496ebd18860a22faee01ae462d753d06664736f6c63430008110033",
  "linkReferences": {},
  "deployedLinkReferences": {}
}